:0C00000019C0FECFFDCFFCCFFBCFFACF24
:10000C00F9CFF8CFF7CFF6CFF5CFF4CFF3CFF2CFC0
:10001C00F1CFF0CFEFCFEECFEDCFECCFEBCF0000A9
:10002C00010002002A000000F894EE27ECBBF1E07E
:10003C00FBBFEBBFE5BF8DE0A2E0BB27ED938A953C
:10004C00E9F780E092E0A0E6ED930197E9F7ECE2A6
:10005C00F0E085919591009761F0A591B59105908F
:10006C001590BF01F00105900D920197E1F7FB018E
:10007C00F0CFEFE5EDBFE2E0EEBFC0EED0E039C06F
:10008C001A931A2FE12FE066E7B983E08A95F1F70E
:10009C00369A349BFECF349AE5B119910895AA9300
:1000AC009ED02F815885A885B0E0EFE1F0E0BCD060
:1000BC001E2F00E0211740F4A12FBB27E22FF0E008
:1000CC00C6D0EA1BFB0B01C0E0E01E2F30E031175D
:1000DC0060F4EE81E03031F4303011F470D001C0B6
:1000EC00000F01C06CD03F5FF2CFE02F7FD029967C
:1000FC000895E0E0EABBEBBBEFEFE7BBE0E0E8BB69
:10010C00E4BBEFEFE5BBE1BBE0E0E2BBE3BFE2BF8A
:10011C00ECBFEFBDEEBDEDBDECBDE7BDE6BDEBBD8F
:10012C00EABDE9BDE8BDE2BDE5BDE4BDE3BDE9BFA7
:10013C00E5BFE4BFEAB9E0E8E8B9E0E6E7B9E1E831
:10014C00E6B9E0E1E0BFE0E0EDB9E6BF2397E0E01F
:10015C00E8839A9902C0E1E0E883999902C0E2E051
:10016C00E88320FE02C030D0F1CF989B13C0A0E0F2
:10017C0087DFEA83AA815A1629F4E8E07E1608F490
:10018C00739401C07724EA81EA937A9224D0E8BB75
:10019C005A8012C0A1E074DFEA83AA814A1629F4BE
:1001AC00E8E06E1608F4639401C06624EA81EA93D1
:1001BC006A9211D0E2BB4A8007D0C8CFFFCFE02FA4
:1001CC00EE0FE1600E2F0895E1E02E26AEE1B0E0D7
:1001DC0045D023960895AA8162DFE98308955A9346
:1001EC004A933A932A931A930A9308955D814C810A
:1001FC003B812A81198108810895F195E195F040A0
:10020C0008950024112490E1AA0FBB1F001C111C9F
:10021C000E1A1F0A18F40E0E1F1E01C0A1609A952B
:10022C0099F7FD01D001089504D0EBDF0EF4E5DF62
:10023C000895E894F7FF02C0E0DF6894B7FF06C0AA
:10024C00B195A195B04000F8039400FA08951B2EC7
:10025C00BF2FF12D1A2EAE2FE12D0895109639F0E7
:10026C00A8958AEF90E00197F1F71197C9F70895D7
:00000001FF
