:0E0000001DC0FECFFDCFFCCFFBCFFACFF9CF56
:10000E00F8CFF7CFF6CFF5CFF4CFF3CFF2CFF1CFC6
:10001E00F0CFEFCFEECFEDCFECCFEBCF0000000067
:10002E00020002002A00020004002C000000F894D6
:10003E00EE27ECBBF1E0FBBFEBBFE5BF8DE0A2E02E
:10004E00BB27ED938A95E9F780E092E0A0E6ED9369
:10005E000197E9F7EEE2F0E085919591009761F056
:10006E00A591B59105901590BF01F00105900D92E7
:10007E000197E1F7FB01F0CFEFE5EDBFE2E0EEBF58
:10008E00C0EED0E000C0EFEFEABBFED0E0E0E7BB91
:10009E00EFEFE8BBE0E0E4BBE5BBE1BBE2BBE3BFF7
:1000AE00E2BFECBFEFBDEEBDEDBDECBDE7BDE6BD05
:1000BE00EBBDEABDE9BDE8BDE2BDE5BDE4BDE3BD16
:1000CE00E9BFE5BFE4BFEAB9E0E8E8B9E0E0E0BFC8
:1000DE00E6B9EDB9E6BF2297E894B499689424F88E
:1000EE00E894B599689425F8E894B699689426F83A
:1000FE0033FE02C024FE01C011C0E0E0E883A881F7
:10010E00BB271A9744F4E881C2D0A0E0A083E8810F
:10011E00EF5FE883F4CF44245524BDD034FE02C0F3
:10012E0025FE01C001C0B7D035FE02C026FE01C0BB
:10013E0003C0689436F8B4D033FC02C024FC01C06E
:10014E0001C0AED034FC02C025FC01C001C0A8D055
:10015E0035FC02C026FC01C001C0A2D036FC04C092
:10016E00A42DBB271A970CF049C0E894B099689457
:10017E0020F8E894B199689421F8E894B2996894BB
:10018E0022F8E894B399689423F827FE02C020FE63
:10019E0001C003C088D0A1E088D030FE02C021FE8D
:1001AE0001C003C080D0A2E080D031FE02C022FE8A
:1001BE0001C003C078D0A3E078D032FE02C023FE87
:1001CE0001C003C070D0A4E070D027FC02C020FC98
:1001DE0001C001C065D030FC02C021FC01C001C0CD
:1001EE005FD031FC02C022FC01C001C059D032FCEC
:1001FE0002C023FC01C001C053D035C036FE04C07E
:10020E00A52DBB271A970CF02EC0E52D40D0E0810E
:10021E00E9835394F0E0E130A0E0FA0731F448D0DE
:10022E00A2E349D0A2ECB1E01DC0E230A0E0FA0793
:10023E0031F43ED0A9E13FD0ABEDB1E013C0E330D5
:10024E00A0E0FA0731F434D0ABE435D0A9EAB1E03E
:10025E0009C0E430A0E0FA0731F42AD0A4E62BD08E
:10026E00A0E9B1E02BD020FA27F821FA30F822FAD3
:10027E0031F823FA32F824FA33F825FA34F826FA4C
:10028E0035F8229628CFFFCFE0E0EBBB0895F0E0E3
:10029E00E052FF4F0895E89436F8A4E1B0E00EC0A6
:1002AE00A4E1B0E00BC0E42DF2CFA0834394F8CFCD
:1002BE00EFEFEBBB0895B0E001D0E6CF109639F02A
:1002CE00A8958AEF90E00197F1F71197C9F7089575
:00000001FF
