:080000001EC0FECFFDCFFCCFB6
:10000800FBCFFACFF9CFF8CFF7CFF6CFF5CFF4CFB4
:10001800F3CFF2CFF1CFF0CFEFCFEECFEDCFECCFE4
:10002800EBCF3F065B4F666D7D077F6F00000100D9
:10003800020034000000F894EE27ECBBF1E0FBBFAF
:10004800EBBFE5BF8DE0A2E0BB27ED938A95E9F70A
:1000580080E092E0A0E6ED930197E9F7E6E3F0E0AF
:1000680085919591009761F0A591B59105901590AE
:10007800BF01F00105900D920197E1F7FB01F0CF68
:10008800EFE5EDBFE2E0EEBFC0EED0E000C0EFEF7D
:10009800EABBE0E0EBBBEFEFE7BBE0E0E8BBE4BBCB
:1000A800E5BBE1BBE2BBE3BFE2BFECBFEFBDEEBD2A
:1000B800EDBDECBDE7BDE6BDEBBDEABDE9BDE8BD04
:1000C800E2BDE5BDE4BDE3BDE9BFE5BFE4BFEAB914
:1000D800E0E8E8B9E0E0E0BFE6B9EDB9E6BF809B4B
:1000E80002C0689401C0E89421F821FE02C020FEF5
:1000F80001C004C05394A8E2B0E020D021FC02C0A3
:1001080020FC01C003C0A8E2B0E018D0EAE0E51581
:1001180011F455244394EAE0E41509F44424E52D48
:1001280008D00BBAE42D05D008BA21FA20F8D7CFA9
:10013800FFCFF0E0E65DFF4F04900895109639F088
:10014800A8958AEF90E00197F1F71197C9F70895FC
:00000001FF
