:0C00000019C0FECFFDCFFCCFFBCFFACF24
:10000C00F9CFF8CFF7CFF6CFF5CFF4CFF3CFF2CFC0
:10001C00F1CFF0CFEFCFEECFEDCFECCFEBCF3F0664
:10002C005B4F666D7D077F6FF894EE27ECBBF1E0BC
:10003C00FBBFEBBFE5BF8DE0A2E0BB27ED938A953C
:10004C00E9F780E092E0A0E6ED930197E9F7EFE5A0
:10005C00EDBFE2E0EEBFC0EED0E000C0E7E0EABBEF
:10006C00E4E0EBBBEFEFE7BBE0E0E8BBE4BBE5BBF8
:10007C00E1BBE2BBE3BFE2BFECBFEFBDEEBDEDBD4C
:10008C00ECBDE7BDE6BDEBBDEABDE9BDE8BDE2BD3B
:10009C00E5BDE4BDE3BDE9BFE5BFE4BFEAB9E0E817
:1000AC00E8B9E0E0E0BFE6B9EDB9E6BF5524EEE310
:1000BC0036D011F4E1E05E2EE8E2E41511F4E4E050
:1000CC005E2EE8E1E41511F4E7E05E2EEDE327D0B7
:1000DC0011F4E2E05E2EE8E2E41511F4E5E05E2EA8
:1000EC00E8E1E41511F4E8E05E2EEBE318D011F42E
:1000FC00E3E05E2EE8E2E41511F4E6E05E2EE8E1C2
:10010C00E41511F4E9E05E2EE52DF0E0E65DFF4F1D
:10011C00049008BAA2E3B0E009D0C8CFFFCFEBBB84
:10012C00E9B3E8734E2EE0E3E4150895109639F028
:10013C00A8958AEF90E00197F1F71197C9F7089508
:00000001FF
