:080000001CC0FECFFDCFFCCFB8
:10000800FBCFFACFF9CFF8CFF7CFF6CFF5CFF4CFB4
:10001800F3CFF2CFF1CFF0CFEFCFEECFEDCFECCFE4
:10002800EBCF3F065B4F666D7D077F6F777C395E50
:100038007971F894EE27ECBBF1E0FBBFEBBFE5BFAD
:100048008DE0A2E0BB27ED938A95E9F780E092E086
:10005800A0E6ED930197E9F7EFE5EDBFE2E0EEBF2B
:10006800C0EED0E00FC01A931A2FE12FE066E7B96F
:1000780083E08A95F1F7369A349BFECF349AE5B13E
:1000880019910895E0E0EABBEBBBEFEFE7BBE0E0D6
:10009800E8BBEFEFE4BBE0E0E5BBE1BBE2BBE3BFFD
:1000A800E2BFECBFEFBDEEBDEDBDECBDE7BDE6BD0B
:1000B800EBBDEABDE9BDE8BDE2BDE5BDE4BDE3BD1C
:1000C800E9BFE5BFE4BFEAB9E0E8E8B9E0E6E7B9C7
:1000D800E1E8E6B9E0E1E0BFE0E0EDB9E6BFA0E0C5
:1000E800C2DFFF2766277727E093E000F093E1005F
:1000F8006093E2007093E300ACE2B1E080E090E04E
:100108004DD0DF01CB01EFEFF0E060E070E066D0AA
:10011800E093E400F093E5006093E6007093E70055
:1001280021D030D0E1E0E5BB1DD07CD0DF01CB0190
:1001380030D028D0E2E0E5BBA5E0B0E077D0A091D0
:10014800E400B091E5008091E6009091E70021D0AD
:1001580069D0E65DFF4FE491E095E8BBE4E0E5BBDC
:10016800BECFFFCFA5E0B0E061D0A091E400B09190
:10017800E5008091E6009091E700E4E6F0E060E0B9
:1001880070E008952BD0E65DFF4FE491E095E8BB61
:100198000895EAE0F0E060E070E008957A9F702D3D
:1001A8006B9F700DF89F700DE99F700D6A9F602D11
:1001B800710DFB9F600D711DE89F600D711D8827F3
:1001C800FA9FF02D610D781FEB9FF00D611D781FD0
:1001D800EA9FE02DF10D681F781F08953F934F9314
:1001E8005F9300241124A00130E2AA0FBB1F881FCF
:1001F800991F001C111C441F551F0E1A1F0A460B7D
:10020800570B28F40E0E1F1E461F571F01C0A16072
:100218003A9559F7FD01BC01D001CA015F914F9190
:100228003F910895DBDFFD01BC010895109639F078
:10023800A8958AEF90E00197F1F71197C9F708950B
:00000001FF
