:0200000039C005
:10000200FECFFDCFFCCFFBCFFACFF9CFF8CFF7CFA2
:10001200F6CFF5CFF4CFF3CFF2CFF1CFF0CFEFCFD2
:10002200EECFEDCFECCFEBCF1027E80364000A0050
:100032000100001000011000010000001E000C0071
:10004200130063004553434F4D0080C0010002007E
:100052003C000100E9003E000100EA00400001000E
:10006200EC0042000100EE0044000200F0004C00EF
:100072000000F894EE27ECBBF1E0FBBFEBBFE5BF5D
:100082008DE0A2E0BB27ED938A95E9F780E092E04C
:10009200A0E6ED930197E9F7EEE4F0E08591959102
:1000A200009761F0A591B59105901590BF01F001FF
:1000B20005900D920197E1F7FB01F0CFEFE5EDBF5F
:1000C200E2E0EEBFC0EED0E00DC01DD2E12FE0664F
:1000D200E7B983E08A95F1F7369A349BFECF349ADA
:1000E200E5B10FC2E0E0EABBEBBBEFEFE7BBE0E05C
:1000F200E8BBE4BBE5BBE1BBEFEFE2BBE0E0E3BFA3
:10010200E2BFECBFEFBDEEBDEDBDECBDE7BDE6BDB0
:10011200EBBDEABDE9BDE8BDE2BDE5BDE4BDE3BDC1
:10012200E9BFE5BFE4BFEAB9E0E8E8B9E0E6E7B96C
:10013200E1E8E6B9E0E1E0BFE0E0EDB9E6BFA0E169
:10014200B9D166247724E2D1E4E1F0E05F01A2E3D1
:10015200E0D1809902C0E89401C0689421F820FEA1
:1001620002C021FE01C009C0E091EB00E03011F4B1
:10017200E1E001C0E0E0E093EB0021FA20F8EBE0DF
:10018200CAD1A6E4B0E087D1A0E09FDFE093E5000A
:10019200A2E3EA9FF001DF01EFEFF0E062D2A0EE0E
:1001A200B0E06F2F660F660B762FE5D2ED93FD93CD
:1001B2006D937C93B3D1BBD159D309F008F409C034
:1001C200B6D1E093E000F093E1006093E200709317
:1001D200E300A4D1E0E0F0E060E271E4F9D294D26D
:1001E2002F01D201E4E6F0E03CD2CE2ED201E4E6C9
:1001F200F0E03FD22F01D2019FD13BD2E093E40045
:10020200D2019DD1DE2EEAE09DD1AC2DA05D25D19B
:10021200EBE098D1AD2DA05D20D1ECE093D1AEE220
:100222001CD1EDE08FD1A091E400A05D16D1EEE0EB
:1002320089D1AFED12D1EFE085D1A3E40ED1A09127
:10024200EB00A130C9F4819906C07FD11CF45ED1C4
:100252007FD101C083D1829906C077D11CF456D1D7
:1002620081D101C07BD1839906C06FD11CF44ED1DC
:100272007FD101C073D11BC0819909C066D134F40A
:1002820045D17CD183D108F089D101C067D182994F
:1002920006C05BD11CF43AD18ED101C05FD18399E3
:1002A20006C053D11CF432D18CD101C057D1E1E345
:1002B200F0E0E615F70524F46624772459D103C04B
:1002C200F30131963F01A091E600AC3310F04AD120
:1002D2007ED1A091E700AC3328F03AD1E0E0E09380
:1002E200E70075D1A091E800A83140F06AD1E0E0C2
:1002F200E093E8006CD1E0E0E093E700A091E90030
:10030200A03220F058D1E0E0E093E900A091EA00A9
:10031200AD3038F033D1E0E0E093EA0037D108F0B5
:100322003DD1E0E00FD1A091E80055D156D1E1E0F6
:1003320009D1A091E80054D1E2E004D1AAE38DD022
:10034200E3E000D1A091E70046D147D1E4E0FAD042
:10035200A091E70045D1E5E0F5D0AAE37ED0E6E042
:10036200F1D0A091E60037D138D1E7E0EBD0A091EF
:10037200E60036D1E0E0CFD037D160D12ED1E1E036
:10038200CAD032D173D129D1E2E0C5D032D156D10F
:1003920024D1E3E0C0D02DD169D11FD1E4E0BBD09C
:1003A200ADE25BD0E5E0B7D0A091EA0014D115D15F
:1003B200E6E0B1D0A091EA0013D1E7E0ACD0ADE223
:1003C2004CD0E8E0A8D0A091E90005D106D1E9E03F
:1003D200A2D0A091E90004D1A2E39BD0B8CEFFCF76
:1003E20092D0E8B3EF70AE2FE12FE07FEA2BE8BBAB
:1003F20005D1C29A03D1C29801D183C0AA93A88120
:10040200EFDFE881E295E883A881EADF81E18A955E
:10041200F1F721960895FED01A2F0A81E12FF0E01C
:10042200E051FF4FE081E00FAE2FE8DF0093F400D0
:100432001093F500F4D023960895A2E0DFDFA3E045
:1004420068D0ACE0DBDFA1E0D9DFA3E062D0E0E07E
:10045200E093F500E093F400089555D01A3031F09E
:10046200E091F600A091F400AE1758F0E0E0EA93B4
:10047200A091F500AF5FA093F500CDDF1A3009F42B
:1004820040C0E091F400EF5FE093F400C09AA12F26
:10049200B5DFC09836C0BCD09D01F9012F5F3F4F38
:1004A200E4911E2FE03019F0A12FD7DFF6CFB5D09F
:1004B2002496089528D0E7B3E06FE7BBBA9AB89ABA
:1004C200B99AC298C098C1981093F600E12FE058EB
:1004D200E093F200E12FE054E093F300A4E119D09D
:1004E20091D090D08FD0A0E27BDF81E28A95F1F7A4
:1004F200A8E284DFA4E082DFA5E880DFA6E07EDF59
:100502009CDF199108951A931A2F0895882499242B
:100512000895B0E0CBC1EA93A0E07DCFA091E000C6
:10052200B091E1008091E2009091E3000895E0E053
:10053200F0E066EC72E40895EAE0F0E00895FCDF92
:1005420090D00895EA93A1E066CFA814B904089563
:10055200E091E800EF5FE093E8000895F40131963E
:100562004F010895E091E700EF5FE093E7000895FF
:10057200E091E600EF5FE093E6000895AEEEB0E0B2
:10058200ED91FD913196FE93EE930895A091EE00C8
:10059200B091EF00A436E0E0BE070895ACEEB0E003
:1005A200ED91FD913196FE93EE93E0E0E093EE0043
:1005B200E093EF000895E091EA00EF5FE093EA0034
:1005C2000895E091E900EF5FE093E9000895E0E02B
:1005D200E093E6000895B0E0B2CFE05DAE2F3DCFEC
:1005E200BB27AADF46D0F9CFA091EC00B091ED0075
:1005F200A3CFA091EE00B091EF009ECF82E08A954A
:10060200F1F70895A0E3ECDE81E28A95F1F708950F
:100612003A932A931A930A9308953B812A81198166
:1006220008810895F195E195F0400895F09560955F
:100632007095E195FF4F6F4F7F4F0895002411246D
:1006420090E1AA0FBB1F001C111C0E1A1F0A18F4FE
:100652000E0E1F1E01C0A1609A9599F7FD01D001EF
:10066200089515D0EBDF0EF4DDDF0895E7DFFD011D
:100672000895E894B7FF04C0B195A195B04068947D
:10068200F7FDD0DFDBDFFD010EF4CCDF0895E89447
:10069200F7FF02C0C7DF6894B7FF06C0B195A19506
:1006A200B04000F8039400FA0895552342F45038FC
:1006B20011F4E0FF04C03196691F791F6BF050E816
:1006C200572711F45F9373C05F3F31F0660F000C40
:1006D20057956795752F08955F9300200AF072C0B1
:1006E2006BC050E8192E1522880F991F9527550FB8
:1006F200879550E8072E0522660F771F7527550F3D
:1007020067950895689401C0E8945F93F2DF7038AA
:1007120018F07F3F08F44BC056E1571BAAF45195DD
:1007220058300EF4593030F0EFEFFFEF6FEF7FE704
:1007320077F91AC077275523B9F0EE0FFF1F661F0E
:10074200771F5A95D1F710C07727583028F0EF2F2E
:10075200F62F672F5850F9CF552331F076956795CC
:10076200F795E7955A95D1F700200AF45FDF5F917C
:100772000895689401C0E894309760407040B1F0E9
:10078200002426F0772312F4009450DF172E7EE126
:10079200112032F07A95EE0FFF1F661F111CF9CF60
:1007A200EF2FF62F612D5F938ADF5F910895EE2779
:1007B200FF27BF015F910895EFEFFFEF6FE77FEF34
:1007C2005F910895EFEFFFEF6FE77FE75F91089585
:1007D2005F9387DF703859F3903849F30124089406
:1007E200791F23F424F300203AF3ECCF0F921F93E6
:1007F2002F933F934F93112722279927689FA00198
:100802008F9F302D410D591F6B9F300D411D591F78
:100812008E9F27D0BF9F25D06A9F23D0BE9F1DD019
:10082200AF9F1BD0AE9F110D291F391F491F591FA2
:10083200E32FF42F652F522F4F913F912F911F914C
:100842000F9066232AF0550FEE1FFF1F661F02C08E
:1008520073954BF22ADF5F910895100D211D391F08
:1008620002C0200D311D491F591F089599239AF086
:10087200772342F0971748F029F4AE17BF0786078F
:1008820020F031F0989488940895989408940895EB
:100892001894889408957723C2F7971798F3A9F7C5
:1008A200EA17FB07680788F399F3ECCF109639F043
:1008B200A8958AEF90E00197F1F71197C9F708958B
:00000001FF
