:0C0000002BC0FECFFDCFFCCFFBCFFACF12
:10000C00F9CFF8CFF7CFF6CFF5CFF4CFF3CFF2CFC0
:10001C00F1CFF0CFEFCFEECFEDCFECCFEBCF3F0664
:10002C005B4F666D7C077F6F0100000901002D4E50
:10003C00414E00494E46000002000200340002000E
:10004C00040036000100EC0038000000F894EE27A4
:10005C00ECBBF1E0FBBFEBBFE5BF8DE0A2E0BB2743
:10006C00ED938A95E9F780E092E0A0E6ED93019795
:10007C00E9F7E4E4F0E085919591009761F0A591A2
:10008C00B59105901590BF01F00105900D92019767
:10009C00E1F7FB01F0CFEFE5EDBFE2E0EEBFC0EE24
:1000AC00D0E000C0EFEFEABBE0E0EBBBEFEFE7BB6B
:1000BC00E0E0E8BBEFEFE4BBE0E0E5BBE0E3E1BB95
:1000CC00EFECE2BBE0E0E3BFE2BFECBFEFBDEEBDA7
:1000DC00EDBDECBDE7BDE6BDEBBDEABDE9BDE8BDE0
:1000EC00E2BDE5BDE4BDE3BDE9BFE5BFE4BFEAB9F0
:1000FC00E0E8E8B9E0E0E0BFE6B9EDB9E6BF4DD124
:10010C0058D15AD15ED163D165D169D120FC10C0D0
:10011C0088249924EEE1F0E08E169F0644F4EBD08F
:10012C0095D072D068D0F40131964F01F3CF05D041
:10013C00E2D06AD060D0EACFFFCF57D15BD1EA0FC3
:10014C00FB1F3AD157D1189724F4A091E500AA23AC
:10015C004AF455D159D13ED148D1EE0FFF1F4AD1A7
:10016C0057D12AD158D15CD156D11797C1F462D14D
:10017C0064D119F05FD166D141F46AD16ED172D1DC
:10018C00CAD128D148D14CD10AC0439412D114D130
:10019C0018D1EFEFFFEF1ED1EFEFFFEF5ED1E09143
:1001AC00E600F091E7003097E9F469D146D119F0F7
:1001BC0066D148D139F44CD150D12DD131D152D155
:1001CC00AAD10CC05394E4E0F0E0F6D0E4E0F0E007
:1001DC00E093E600F093E70002D1F9D0E093E80059
:1001EC00F093E900E9E0E51510F0E41518F4552456
:1001FC004424D3D00895EFEEE2BBE42D43D1EFEDD0
:10020C00E2BBE52D3FD10895E8948699689431F8C6
:10021C00E8948799689433F831FC02C032FC01C031
:10022C0002C0E1E02E2633FC02C034FC01C009C040
:10023C00689420F84424B1D055244424BAD0BCD0BE
:10024C00C0D031FA32F833FA34F80895E894809932
:10025C00689421F8E8948299689423F8E894819939
:10026C00689425F8E8948399689427F821FC02C0D7
:10027C0022FC01C009C0DED0F0E03197FF2322F050
:10028C00D9D0E150E093E00025FC02C026FC01C06F
:10029C000BC0D0D0EF5FE093E000A091E000A7305E
:1002AC0018F0E6E0E093E00023FC02C024FC01C05F
:1002BC0009C0E5D0F0E03197FF2322F0E0D0E15007
:1002CC00E093E20027FC02C030FC01C00BC0D7D089
:1002DC00EF5FE093E200A091E200A73018F0E6E0B7
:1002EC00E093E20021FA22F823FA24F825FA26F802
:1002FC0027FA30F80895D8D01FEF00E06624772451
:10030C00E8E0F0E06E167F064CF5E62DA1E0D3D0C8
:10031C00E095E123E8BB00E08DD0BCD019F08AD089
:10032C00BED009F40068ABD0B5D019F0A8D0B7D0C6
:10033C0009F40160E091E400F091E500E615F705A1
:10034C0029F4E091E600A1E0B6D00E2B0BBBA1E0A6
:10035C00B0E01CD1F30131963F01D2CF0991199134
:10036C000895E091EC00F091ED006091EE00709139
:10037C00EF00ADE6BEE486EC91E4ADD0EE59F84862
:10038C006F4F7F4FE093EC00F093ED006093EE0025
:10039C007093EF00FB01FF770895E6E0E093E00037
:1003AC00E7E0E093E100E0E0E093E200E093E300BB
:1003BC000895E3E0F0E00895E093E400F093E500A5
:1003CC000895F7DFE093E600F093E7000895E1E08D
:1003DC00F0E00895E093E800F093E9000895F7DF6A
:1003EC00E093EA00F093EB000895E091E800F091BF
:1003FC00E9000895A091E400B091E5000895A09162
:10040C00E800B091E9000895EFEFFFEF84D0089574
:10041C00EA0FFB1F0895A091E600B091E700089544
:10042C00E091EA00F091EB00F3DFE093E600F0934B
:10043C00E7000895E091E0000895DCDFF0E0EA17B2
:10044C00FB070895F0E03196D5DFEA17FB07089516
:10045C00A091EA00B091EB00D7CFE093EA00F093C3
:10046C00EB0008957EDFDF01E2E0F0E06CD0EE0FF0
:10047C00FF1FA1E0B0E083D0EA1BFB0BC0CFE091E3
:10048C00E2000895F0E0E65DFF4F049005BAA1E0AC
:10049C00B0E07CC0D301F0E0EA17FB070895F0E070
:1004AC003196E615F70508951A930A930895F19578
:1004BC00E195F0400895EE230E2EEA2F19F0EE0F81
:1004CC000A94E9F70895FA9FF02DEB9FF00DEA9F3F
:1004DC00E02DF10D08957A9F702D6B9F700DF89F94
:1004EC00700DE99F700D6A9F602D710DFB9F600D63
:1004FC00711DE89F600D711D8827FA9FF02D610D0D
:10050C00781FEB9FF00D611D781FEA9FE02DF10D18
:10051C00681F781F089525D0D6DF0EF4C8DF089524
:10052C000024112490E1AA0FBB1F001C111C0E1AF1
:10053C001F0A18F40E0E1F1E01C0A1609A9599F7A0
:10054C00FD01D0010895E894B7FF04C0B195A195C1
:10055C00B0406894F7FDABDFE3DFFD010EF4A7DFDD
:10056C000895E894F7FF02C0A2DF6894B7FF06C0B5
:10057C00B195A195B04000F8039400FA08951B2E94
:10058C00BF2FF12D1A2EAE2FE12D0895109639F0B4
:10059C00A8958AEF90E00197F1F71197C9F70895A4
:00000001FF
