:0C00000058C0FECFFDCFFCCFFBCFFACFE5
:10000C00F9CFF8CFF7CFF6CFF5CFF4CFF3CFF2CFC0
:10001C00F1CFF0CFEFCFEECFEDCFECCFEBCF0000A9
:10002C000104000000000000FFFFFFFFFFFFFF00C6
:10003C000101010101020202020204040404040889
:10004C000808080810101010102020202020404014
:10005C0040404000412E363A413F3D003F3F3D1E5F
:10006C002E36395D3E363649676B6D007F583A3A0D
:10007C003A46433536364F7C7E0E767849363636E0
:10008C00497936365669010002002A00080004003E
:10009C002C000700E00034002300E7003C00320095
:1000AC000A0160000000F894EE27ECBBF1E0FBBF06
:1000BC00EBBFE5BF8DE0A2E0BB27ED938A95E9F796
:1000CC0080E092E0A0E6ED930197E9F7E2E9F0E039
:1000DC0085919591009761F0A591B591059015903A
:1000EC00BF01F00105900D920197E1F7FB01F0CFF4
:1000FC00EFE5EDBFE2E0EEBFC0EED0E00FC0AA240A
:10010C006624BB2499248824E1E04E2E5394E89471
:10011C0020F8E5E0E51509F455240895E0E0EABB84
:10012C00EFEFEBBBE0E0E7BBEFEFE8BBE4BBE0E0FD
:10013C00E5BBEFEFE1BBE0E0E2BBE3BFE2BFECBF4E
:10014C00EFBDEEBDEDBDECBDE7BDE6BDEBBDEABD63
:10015C00E9BDE8BDE2BDE5BDE4BDE3BDE9BFE5BF7A
:10016C00E4BFEAB9E0E8E8B9E0E0E0BFE6B9EDB930
:10017C00E6BFE52DF0E0309751F4E62DF0E0E052CB
:10018C00FF4FE0818CD0A4E6B0E0A0D041C08AD073
:10019C0061F48CD08394E5E0E81511F4B3948824D1
:1001AC00E7E0EB1509F4BB2433C08CD039F47ED0D6
:1001BC00B394E7E0EB1509F4BB242AC0E330A0E0CC
:1001CC00FA0779F473D0A4E6B0E080D08394E5E02C
:1001DC00E81511F4B3948824E7E0EB1509F4BB247B
:1001EC0017C0E92DA5E0EA9FF001E65FFE4FDF01A5
:1001FC00EE27A60DBE1F7C908394ECE3E81511F45A
:10020C0088249394EAE0E91519F4689420F8992469
:10021C00E42DF0E047D011F4E2E011C053D011F41A
:10022C00E4E00DC0E430A0E0FA0711F4E8E007C008
:10023C00E830A0E0FA0711F4E0E101C0E1E04E2E55
:10024C006394E5E0E61511F46624A394E52DF0E043
:10025C00309729F4E4E0EA1509F451DF19C022D0F3
:10026C0029F4E2E3EA1509F44ADF12C02BD029F491
:10027C00E2E3EA1509F443DF0BC0E330A0E0FA0730
:10028C0029F4E5E0EA1509F43ADF02C020FC37DF77
:10029C0045BA72BAAAE0B0E019D06BCFFFCFE095A7
:1002AC007E2E0895E130A0E0FA070895EB2DA5E02D
:1002BC00EA9FF001E951FF4FDF01EE27A60DBE1FAB
:1002CC00EC91EDCFE230A0E0FA070895109639F0EA
:1002DC00A8958AEF90E00197F1F71197C9F7089567
:00000001FF
